{
  "evm": {
    "bytecode": {
      "linkReferences": {},
      "object": "6080604052348015600f57600080fd5b5060808061001e6000396000f3fe6080604052348015600f57600080fd5b50600436106045576000357c01000000000000000000000000000000000000000000000000000000009004806332e43a1114604a575b600080fd5b60506052565b005b56fea165627a7a72305820be3031bd7f7200065725b5cc0378f0d659a379cf95a169beae8b0cfc23cf89970029",
      "opcodes": "PUSH1 0x80 PUSH1 0x40 MSTORE CALLVALUE DUP1 ISZERO PUSH1 0xF JUMPI PUSH1 0x0 DUP1 REVERT JUMPDEST POP PUSH1 0x80 DUP1 PUSH2 0x1E PUSH1 0x0 CODECOPY PUSH1 0x0 RETURN INVALID PUSH1 0x80 PUSH1 0x40 MSTORE CALLVALUE DUP1 ISZERO PUSH1 0xF JUMPI PUSH1 0x0 DUP1 REVERT JUMPDEST POP PUSH1 0x4 CALLDATASIZE LT PUSH1 0x45 JUMPI PUSH1 0x0 CALLDATALOAD PUSH29 0x100000000000000000000000000000000000000000000000000000000 SWAP1 DIV DUP1 PUSH4 0x32E43A11 EQ PUSH1 0x4A JUMPI JUMPDEST PUSH1 0x0 DUP1 REVERT JUMPDEST PUSH1 0x50 PUSH1 0x52 JUMP JUMPDEST STOP JUMPDEST JUMP INVALID LOG1 PUSH6 0x627A7A723058 KECCAK256 0xbe ADDRESS BALANCE 0xbd PUSH32 0x7200065725B5CC0378F0D659A379CF95A169BEAE8B0CFC23CF89970029000000 "
    }
  },
  "abi": [
    {
      "constant": true,
      "inputs": [],
      "name": "dummy",
      "outputs": [],
      "payable": false,
      "stateMutability": "pure",
      "type": "function"
    }
  ]
}