{
  "evm": {
    "bytecode": {
      "linkReferences": {},
      "object": "60cd61002f600b82828239805160001a6073146000811461001f57610021565bfe5b5030600052607381538281f3fe73000000000000000000000000000000000000000030146080604052600436106050576000357c0100000000000000000000000000000000000000000000000000000000900480631f6c6a87146055575b600080fd5b607e60048036036020811015606957600080fd5b81019080803590602001909291905050506094565b6040518082815260200191505060405180910390f35b600060078201905091905056fea165627a7a7230582004865d8bdcac17fb9c1c2972138b08d8096088889f1b14a914055e8f8c8d098b0029",
      "opcodes": "PUSH1 0xCD PUSH2 0x2F PUSH1 0xB DUP3 DUP3 DUP3 CODECOPY DUP1 MLOAD PUSH1 0x0 BYTE PUSH1 0x73 EQ PUSH1 0x0 DUP2 EQ PUSH2 0x1F JUMPI PUSH2 0x21 JUMP JUMPDEST INVALID JUMPDEST POP ADDRESS PUSH1 0x0 MSTORE PUSH1 0x73 DUP2 MSTORE8 DUP3 DUP2 RETURN INVALID PUSH20 0x0 ADDRESS EQ PUSH1 0x80 PUSH1 0x40 MSTORE PUSH1 0x4 CALLDATASIZE LT PUSH1 0x50 JUMPI PUSH1 0x0 CALLDATALOAD PUSH29 0x100000000000000000000000000000000000000000000000000000000 SWAP1 DIV DUP1 PUSH4 0x1F6C6A87 EQ PUSH1 0x55 JUMPI JUMPDEST PUSH1 0x0 DUP1 REVERT JUMPDEST PUSH1 0x7E PUSH1 0x4 DUP1 CALLDATASIZE SUB PUSH1 0x20 DUP2 LT ISZERO PUSH1 0x69 JUMPI PUSH1 0x0 DUP1 REVERT JUMPDEST DUP2 ADD SWAP1 DUP1 DUP1 CALLDATALOAD SWAP1 PUSH1 0x20 ADD SWAP1 SWAP3 SWAP2 SWAP1 POP POP POP PUSH1 0x94 JUMP JUMPDEST PUSH1 0x40 MLOAD DUP1 DUP3 DUP2 MSTORE PUSH1 0x20 ADD SWAP2 POP POP PUSH1 0x40 MLOAD DUP1 SWAP2 SUB SWAP1 RETURN JUMPDEST PUSH1 0x0 PUSH1 0x7 DUP3 ADD SWAP1 POP SWAP2 SWAP1 POP JUMP INVALID LOG1 PUSH6 0x627A7A723058 KECCAK256 DIV DUP7 0x5d DUP12 0xdc 0xac OR 0xfb SWAP13 SHR 0x29 PUSH19 0x138B08D8096088889F1B14A914055E8F8C8D09 DUP12 STOP 0x29 "
    }
  },
  "abi": [
    {
      "constant": true,
      "inputs": [
        {
          "name": "_number",
          "type": "uint256"
        }
      ],
      "name": "sevenify",
      "outputs": [
        {
          "name": "",
          "type": "uint256"
        }
      ],
      "payable": false,
      "stateMutability": "pure",
      "type": "function"
    }
  ]
}