{
  "evm": {
    "bytecode": {
      "linkReferences": {},
      "object": "6080604052348015600f57600080fd5b5060808061001e6000396000f3fe6080604052348015600f57600080fd5b50600436106045576000357c010000000000000000000000000000000000000000000000000000000090048063d6e44dc914604a575b600080fd5b60506052565b005b56fea165627a7a72305820a6af92ecbebe412535d7a8e3c112a516a5365a9f265b47097bb5d07b9dd0dc6b0029",
      "opcodes": "PUSH1 0x80 PUSH1 0x40 MSTORE CALLVALUE DUP1 ISZERO PUSH1 0xF JUMPI PUSH1 0x0 DUP1 REVERT JUMPDEST POP PUSH1 0x80 DUP1 PUSH2 0x1E PUSH1 0x0 CODECOPY PUSH1 0x0 RETURN INVALID PUSH1 0x80 PUSH1 0x40 MSTORE CALLVALUE DUP1 ISZERO PUSH1 0xF JUMPI PUSH1 0x0 DUP1 REVERT JUMPDEST POP PUSH1 0x4 CALLDATASIZE LT PUSH1 0x45 JUMPI PUSH1 0x0 CALLDATALOAD PUSH29 0x100000000000000000000000000000000000000000000000000000000 SWAP1 DIV DUP1 PUSH4 0xD6E44DC9 EQ PUSH1 0x4A JUMPI JUMPDEST PUSH1 0x0 DUP1 REVERT JUMPDEST PUSH1 0x50 PUSH1 0x52 JUMP JUMPDEST STOP JUMPDEST JUMP INVALID LOG1 PUSH6 0x627A7A723058 KECCAK256 0xa6 0xaf SWAP3 0xec 0xbe 0xbe COINBASE 0x25 CALLDATALOAD 0xd7 0xa8 0xe3 0xc1 SLT 0xa5 AND 0xa5 CALLDATASIZE GAS SWAP16 0x26 JUMPDEST 0x47 MULMOD PUSH28 0xB5D07B9DD0DC6B002900000000000000000000000000000000000000 "
    }
  },
  "abi": [
    {
      "constant": true,
      "inputs": [],
      "name": "someOtherDummy",
      "outputs": [],
      "payable": false,
      "stateMutability": "pure",
      "type": "function"
    }
  ]
}