{
  "abi": [
    {
      "constant": true,
      "inputs": [],
      "name": "constantinople",
      "outputs": [
        {
          "name": "",
          "type": "uint8"
        }
      ],
      "payable": false,
      "stateMutability": "pure",
      "type": "function"
    }
  ],
  "evm": {
    "bytecode": {
      "linkReferences": {},
      "object": "6080604052348015600f57600080fd5b5060998061001e6000396000f3fe6080604052348015600f57600080fd5b506004361060285760003560e01c8063610d808a14602d575b600080fd5b6033604f565b604051808260ff1660ff16815260200191505060405180910390f35b60008060009050600260011b9050809150509056fea265627a7a7230582083341559cfcf4a28b3e16143adc329a0a13a03c83838d1b2817f5ab7bbec8c9564736f6c63430005090032",
      "opcodes": "PUSH1 0x80 PUSH1 0x40 MSTORE CALLVALUE DUP1 ISZERO PUSH1 0xF JUMPI PUSH1 0x0 DUP1 REVERT JUMPDEST POP PUSH1 0x99 DUP1 PUSH2 0x1E PUSH1 0x0 CODECOPY PUSH1 0x0 RETURN INVALID PUSH1 0x80 PUSH1 0x40 MSTORE CALLVALUE DUP1 ISZERO PUSH1 0xF JUMPI PUSH1 0x0 DUP1 REVERT JUMPDEST POP PUSH1 0x4 CALLDATASIZE LT PUSH1 0x28 JUMPI PUSH1 0x0 CALLDATALOAD PUSH1 0xE0 SHR DUP1 PUSH4 0x610D808A EQ PUSH1 0x2D JUMPI JUMPDEST PUSH1 0x0 DUP1 REVERT JUMPDEST PUSH1 0x33 PUSH1 0x4F JUMP JUMPDEST PUSH1 0x40 MLOAD DUP1 DUP3 PUSH1 0xFF AND PUSH1 0xFF AND DUP2 MSTORE PUSH1 0x20 ADD SWAP2 POP POP PUSH1 0x40 MLOAD DUP1 SWAP2 SUB SWAP1 RETURN JUMPDEST PUSH1 0x0 DUP1 PUSH1 0x0 SWAP1 POP PUSH1 0x2 PUSH1 0x1 SHL SWAP1 POP DUP1 SWAP2 POP POP SWAP1 JUMP INVALID LOG2 PUSH6 0x627A7A723058 KECCAK256 DUP4 CALLVALUE ISZERO MSIZE 0xcf 0xcf 0x4a 0x28 0xb3 0xe1 PUSH2 0x43AD 0xc3 0x29 LOG0 LOG1 GASPRICE SUB 0xc8 CODESIZE CODESIZE 0xd1 0xb2 DUP2 PUSH32 0x5AB7BBEC8C9564736F6C63430005090032000000000000000000000000000000 "
    }
  }
}